{
  "address": "0x5FbDB2315678afecb367f032d93F642f64180aa3",
  "abi": [
    {
      "anonymous": false,
      "inputs": [
        {
          "indexed": true,
          "internalType": "address",
          "name": "partyAddress",
          "type": "address"
        },
        {
          "indexed": false,
          "internalType": "string",
          "name": "partyName",
          "type": "string"
        },
        {
          "indexed": false,
          "internalType": "string",
          "name": "remark",
          "type": "string"
        }
      ],
      "name": "RemarkLeft",
      "type": "event"
    },
    {
      "inputs": [
        {
          "internalType": "string",
          "name": "partyName",
          "type": "string"
        },
        {
          "internalType": "address",
          "name": "changedWalletAddress",
          "type": "address"
        }
      ],
      "name": "changeWalletAddress",
      "outputs": [],
      "stateMutability": "nonpayable",
      "type": "function"
    },
    {
      "inputs": [
        {
          "internalType": "string",
          "name": "partyName",
          "type": "string"
        }
      ],
      "name": "getPartyBalance",
      "outputs": [
        {
          "internalType": "uint256",
          "name": "",
          "type": "uint256"
        }
      ],
      "stateMutability": "view",
      "type": "function"
    },
    {
      "inputs": [
        {
          "internalType": "address",
          "name": "partyAddress",
          "type": "address"
        }
      ],
      "name": "getRemarks",
      "outputs": [
        {
          "internalType": "string[]",
          "name": "",
          "type": "string[]"
        }
      ],
      "stateMutability": "view",
      "type": "function"
    },
    {
      "inputs": [
        {
          "internalType": "string",
          "name": "partyName",
          "type": "string"
        }
      ],
      "name": "getWalletAddress",
      "outputs": [
        {
          "internalType": "address",
          "name": "",
          "type": "address"
        }
      ],
      "stateMutability": "view",
      "type": "function"
    },
    {
      "inputs": [
        {
          "internalType": "string",
          "name": "partyName",
          "type": "string"
        },
        {
          "internalType": "address",
          "name": "walletAddress",
          "type": "address"
        }
      ],
      "name": "mapAddress",
      "outputs": [],
      "stateMutability": "nonpayable",
      "type": "function"
    },
    {
      "inputs": [
        {
          "internalType": "string",
          "name": "partyName",
          "type": "string"
        },
        {
          "internalType": "uint256",
          "name": "amount",
          "type": "uint256"
        }
      ],
      "name": "transferBond",
      "outputs": [],
      "stateMutability": "payable",
      "type": "function"
    },
    {
      "inputs": [
        {
          "internalType": "string",
          "name": "partyName",
          "type": "string"
        },
        {
          "internalType": "uint256",
          "name": "amount",
          "type": "uint256"
        },
        {
          "internalType": "string",
          "name": "remark",
          "type": "string"
        }
      ],
      "name": "useFunds",
      "outputs": [],
      "stateMutability": "nonpayable",
      "type": "function"
    }
  ],
  "transactionHash": "0xb994e6a8879768db0bc2758e9cccd3f0ab20536c766a58e536f62c6bcbb242c3",
  "args": [],
  "numDeployments": 1,
  "solcInputHash": "6fe2db84d55e78cd840b00047341c04b",
  "bytecode": "0x608060405234801561001057600080fd5b506111a7806100206000396000f3fe6080604052600436106100705760003560e01c80634500d8201161004e5780634500d820146100f757806347d34e41146101205780634b6c690f1461015d578063ed6148921461018657610070565b806308f20630146100755780631803a312146100b25780632309f773146100ce575b600080fd5b34801561008157600080fd5b5061009c6004803603810190610097919061090d565b6101c3565b6040516100a99190610c86565b60405180910390f35b6100cc60048036038101906100c791906109b2565b61020a565b005b3480156100da57600080fd5b506100f560048036038101906100f09190610956565b61038c565b005b34801561010357600080fd5b5061011e60048036038101906101199190610956565b6103ed565b005b34801561012c57600080fd5b506101476004803603810190610142919061090d565b61044e565b6040516101549190610d7a565b60405180910390f35b34801561016957600080fd5b50610184600480360381019061017f9190610a0e565b610476565b005b34801561019257600080fd5b506101ad60048036038101906101a891906108e0565b61068b565b6040516101ba9190610ca1565b60405180910390f35b600080826040516101d49190610c6f565b908152602001604051809103902060009054906101000a900473ffffffffffffffffffffffffffffffffffffffff169050919050565b6000808360405161021b9190610c6f565b908152602001604051809103902060009054906101000a900473ffffffffffffffffffffffffffffffffffffffff169050600073ffffffffffffffffffffffffffffffffffffffff168173ffffffffffffffffffffffffffffffffffffffff1614156102bc576040517f08c379a00000000000000000000000000000000000000000000000000000000081526004016102b390610d1a565b60405180910390fd5b8134101580156102cc5750600082115b61030b576040517f08c379a000000000000000000000000000000000000000000000000000000000815260040161030290610d5a565b60405180910390fd5b8160018460405161031c9190610c6f565b908152602001604051809103902060008282546103399190610e5c565b925050819055508073ffffffffffffffffffffffffffffffffffffffff166108fc839081150290604051600060405180830381858888f19350505050158015610386573d6000803e3d6000fd5b50505050565b8060008360405161039d9190610c6f565b908152602001604051809103902060006101000a81548173ffffffffffffffffffffffffffffffffffffffff021916908373ffffffffffffffffffffffffffffffffffffffff1602179055505050565b806000836040516103fe9190610c6f565b908152602001604051809103902060006101000a81548173ffffffffffffffffffffffffffffffffffffffff021916908373ffffffffffffffffffffffffffffffffffffffff1602179055505050565b60006001826040516104609190610c6f565b9081526020016040518091039020549050919050565b600080846040516104879190610c6f565b908152602001604051809103902060009054906101000a900473ffffffffffffffffffffffffffffffffffffffff1690508073ffffffffffffffffffffffffffffffffffffffff163373ffffffffffffffffffffffffffffffffffffffff1614610526576040517f08c379a000000000000000000000000000000000000000000000000000000000815260040161051d90610d3a565b60405180910390fd5b826001856040516105379190610c6f565b9081526020016040518091039020541015610587576040517f08c379a000000000000000000000000000000000000000000000000000000000815260040161057e90610cfa565b60405180910390fd5b826001856040516105989190610c6f565b908152602001604051809103902060008282546105b59190610eb2565b92505081905550600260008273ffffffffffffffffffffffffffffffffffffffff1673ffffffffffffffffffffffffffffffffffffffff168152602001908152602001600020829080600181540180825580915050600190039060005260206000200160009091909190915090805190602001906106349291906107a3565b508073ffffffffffffffffffffffffffffffffffffffff167f2d8390526a379c5a4f0afd8404a3746ad8aeddcdd00083c632845b7e444ecbc2858460405161067d929190610cc3565b60405180910390a250505050565b6060600260008373ffffffffffffffffffffffffffffffffffffffff1673ffffffffffffffffffffffffffffffffffffffff168152602001908152602001600020805480602002602001604051908101604052809291908181526020016000905b8282101561079857838290600052602060002001805461070b90610f64565b80601f016020809104026020016040519081016040528092919081815260200182805461073790610f64565b80156107845780601f1061075957610100808354040283529160200191610784565b820191906000526020600020905b81548152906001019060200180831161076757829003601f168201915b5050505050815260200190600101906106ec565b505050509050919050565b8280546107af90610f64565b90600052602060002090601f0160209004810192826107d15760008555610818565b82601f106107ea57805160ff1916838001178555610818565b82800160010185558215610818579182015b828111156108175782518255916020019190600101906107fc565b5b5090506108259190610829565b5090565b5b8082111561084257600081600090555060010161082a565b5090565b600061085961085484610dba565b610d95565b90508281526020810184848401111561087557610874611059565b5b610880848285610f22565b509392505050565b60008135905061089781611143565b92915050565b600082601f8301126108b2576108b1611054565b5b81356108c2848260208601610846565b91505092915050565b6000813590506108da8161115a565b92915050565b6000602082840312156108f6576108f5611063565b5b600061090484828501610888565b91505092915050565b60006020828403121561092357610922611063565b5b600082013567ffffffffffffffff8111156109415761094061105e565b5b61094d8482850161089d565b91505092915050565b6000806040838503121561096d5761096c611063565b5b600083013567ffffffffffffffff81111561098b5761098a61105e565b5b6109978582860161089d565b92505060206109a885828601610888565b9150509250929050565b600080604083850312156109c9576109c8611063565b5b600083013567ffffffffffffffff8111156109e7576109e661105e565b5b6109f38582860161089d565b9250506020610a04858286016108cb565b9150509250929050565b600080600060608486031215610a2757610a26611063565b5b600084013567ffffffffffffffff811115610a4557610a4461105e565b5b610a518682870161089d565b9350506020610a62868287016108cb565b925050604084013567ffffffffffffffff811115610a8357610a8261105e565b5b610a8f8682870161089d565b9150509250925092565b6000610aa58383610b31565b905092915050565b610ab681610ee6565b82525050565b6000610ac782610dfb565b610ad18185610e1e565b935083602082028501610ae385610deb565b8060005b85811015610b1f5784840389528151610b008582610a99565b9450610b0b83610e11565b925060208a01995050600181019050610ae7565b50829750879550505050505092915050565b6000610b3c82610e06565b610b468185610e2f565b9350610b56818560208601610f31565b610b5f81611068565b840191505092915050565b6000610b7582610e06565b610b7f8185610e40565b9350610b8f818560208601610f31565b610b9881611068565b840191505092915050565b6000610bae82610e06565b610bb88185610e51565b9350610bc8818560208601610f31565b80840191505092915050565b6000610be1601483610e40565b9150610bec82611079565b602082019050919050565b6000610c04601483610e40565b9150610c0f826110a2565b602082019050919050565b6000610c27602d83610e40565b9150610c32826110cb565b604082019050919050565b6000610c4a601f83610e40565b9150610c558261111a565b602082019050919050565b610c6981610f18565b82525050565b6000610c7b8284610ba3565b915081905092915050565b6000602082019050610c9b6000830184610aad565b92915050565b60006020820190508181036000830152610cbb8184610abc565b905092915050565b60006040820190508181036000830152610cdd8185610b6a565b90508181036020830152610cf18184610b6a565b90509392505050565b60006020820190508181036000830152610d1381610bd4565b9050919050565b60006020820190508181036000830152610d3381610bf7565b9050919050565b60006020820190508181036000830152610d5381610c1a565b9050919050565b60006020820190508181036000830152610d7381610c3d565b9050919050565b6000602082019050610d8f6000830184610c60565b92915050565b6000610d9f610db0565b9050610dab8282610f96565b919050565b6000604051905090565b600067ffffffffffffffff821115610dd557610dd4611025565b5b610dde82611068565b9050602081019050919050565b6000819050602082019050919050565b600081519050919050565b600081519050919050565b6000602082019050919050565b600082825260208201905092915050565b600082825260208201905092915050565b600082825260208201905092915050565b600081905092915050565b6000610e6782610f18565b9150610e7283610f18565b9250827fffffffffffffffffffffffffffffffffffffffffffffffffffffffffffffffff03821115610ea757610ea6610fc7565b5b828201905092915050565b6000610ebd82610f18565b9150610ec883610f18565b925082821015610edb57610eda610fc7565b5b828203905092915050565b6000610ef182610ef8565b9050919050565b600073ffffffffffffffffffffffffffffffffffffffff82169050919050565b6000819050919050565b82818337600083830152505050565b60005b83811015610f4f578082015181840152602081019050610f34565b83811115610f5e576000848401525b50505050565b60006002820490506001821680610f7c57607f821691505b60208210811415610f9057610f8f610ff6565b5b50919050565b610f9f82611068565b810181811067ffffffffffffffff82111715610fbe57610fbd611025565b5b80604052505050565b7f4e487b7100000000000000000000000000000000000000000000000000000000600052601160045260246000fd5b7f4e487b7100000000000000000000000000000000000000000000000000000000600052602260045260246000fd5b7f4e487b7100000000000000000000000000000000000000000000000000000000600052604160045260246000fd5b600080fd5b600080fd5b600080fd5b600080fd5b6000601f19601f8301169050919050565b7f496e73756666696369656e742062616c616e6365000000000000000000000000600082015250565b7f5061727479206e6f742072656769737465726564000000000000000000000000600082015250565b7f4f6e6c792074686520726567697374657265642070617274792063616e20757360008201527f652074686573652066756e647300000000000000000000000000000000000000602082015250565b7f496e73756666696369656e74206f72207a65726f2045746865722073656e7400600082015250565b61114c81610ee6565b811461115757600080fd5b50565b61116381610f18565b811461116e57600080fd5b5056fea264697066735822122059c91be3fe64804e1d0c956266fdf644c545a27ea926e6e87b65463f5b5b05c364736f6c63430008070033",
  "devdoc": {
    "kind": "dev",
    "methods": {},
    "version": 1
  },
  "userdoc": {
    "kind": "user",
    "methods": {},
    "version": 1
  },
  "storageLayout": {
    "storage": [
      {
        "astId": 5,
        "contract": "contracts/ElectoralBond.sol:ElectoralBond",
        "label": "s_partyToWalletMap",
        "offset": 0,
        "slot": "0",
        "type": "t_mapping(t_string_memory_ptr,t_address)"
      },
      {
        "astId": 9,
        "contract": "contracts/ElectoralBond.sol:ElectoralBond",
        "label": "s_partyBalances",
        "offset": 0,
        "slot": "1",
        "type": "t_mapping(t_string_memory_ptr,t_uint256)"
      },
      {
        "astId": 14,
        "contract": "contracts/ElectoralBond.sol:ElectoralBond",
        "label": "s_partyRemarks",
        "offset": 0,
        "slot": "2",
        "type": "t_mapping(t_address,t_array(t_string_storage)dyn_storage)"
      }
    ],
    "types": {
      "t_address": {
        "encoding": "inplace",
        "label": "address",
        "numberOfBytes": "20"
      },
      "t_array(t_string_storage)dyn_storage": {
        "base": "t_string_storage",
        "encoding": "dynamic_array",
        "label": "string[]",
        "numberOfBytes": "32"
      },
      "t_mapping(t_address,t_array(t_string_storage)dyn_storage)": {
        "encoding": "mapping",
        "key": "t_address",
        "label": "mapping(address => string[])",
        "numberOfBytes": "32",
        "value": "t_array(t_string_storage)dyn_storage"
      },
      "t_mapping(t_string_memory_ptr,t_address)": {
        "encoding": "mapping",
        "key": "t_string_memory_ptr",
        "label": "mapping(string => address)",
        "numberOfBytes": "32",
        "value": "t_address"
      },
      "t_mapping(t_string_memory_ptr,t_uint256)": {
        "encoding": "mapping",
        "key": "t_string_memory_ptr",
        "label": "mapping(string => uint256)",
        "numberOfBytes": "32",
        "value": "t_uint256"
      },
      "t_string_memory_ptr": {
        "encoding": "bytes",
        "label": "string",
        "numberOfBytes": "32"
      },
      "t_string_storage": {
        "encoding": "bytes",
        "label": "string",
        "numberOfBytes": "32"
      },
      "t_uint256": {
        "encoding": "inplace",
        "label": "uint256",
        "numberOfBytes": "32"
      }
    }
  }
}